{
  "contractName": "BalanceSheet",
  "abi": [
    {
      "inputs": [],
      "stateMutability": "nonpayable",
      "type": "constructor"
    },
    {
      "inputs": [],
      "name": "balance",
      "outputs": [
        {
          "internalType": "uint256",
          "name": "",
          "type": "uint256"
        }
      ],
      "stateMutability": "view",
      "type": "function",
      "constant": true
    },
    {
      "inputs": [],
      "name": "owner",
      "outputs": [
        {
          "internalType": "address",
          "name": "",
          "type": "address"
        }
      ],
      "stateMutability": "view",
      "type": "function",
      "constant": true
    },
    {
      "inputs": [],
      "name": "getBalance",
      "outputs": [
        {
          "internalType": "uint256",
          "name": "",
          "type": "uint256"
        }
      ],
      "stateMutability": "nonpayable",
      "type": "function"
    }
  ],
  "bytecode": "0x608060405234801561001057600080fd5b50336000806101000a81548173ffffffffffffffffffffffffffffffffffffffff021916908373ffffffffffffffffffffffffffffffffffffffff160217905550610230806100606000396000f3fe608060405234801561001057600080fd5b50600436106100415760003560e01c806312065fe0146100465780638da5cb5b14610064578063b69ef8a814610082575b600080fd5b61004e6100a0565b60405161005b9190610183565b60405180910390f35b61006c610140565b60405161007991906101df565b60405180910390f35b61008a610164565b6040516100979190610183565b60405180910390f35b60003373ffffffffffffffffffffffffffffffffffffffff1660008054906101000a900473ffffffffffffffffffffffffffffffffffffffff1673ffffffffffffffffffffffffffffffffffffffff16146100fa57600080fd5b60008054906101000a900473ffffffffffffffffffffffffffffffffffffffff1673ffffffffffffffffffffffffffffffffffffffff1631600181905550600154905090565b60008054906101000a900473ffffffffffffffffffffffffffffffffffffffff1681565b60015481565b6000819050919050565b61017d8161016a565b82525050565b60006020820190506101986000830184610174565b92915050565b600073ffffffffffffffffffffffffffffffffffffffff82169050919050565b60006101c98261019e565b9050919050565b6101d9816101be565b82525050565b60006020820190506101f460008301846101d0565b9291505056fea26469706673582212206fce7daca4f59ef8689c3a3ebb9d1f254538f039fa50994f3084b6964bda078064736f6c63430008100033",
  "immutableReferences": {},
  "source": "// SPDX-License-Identifier: GPL-3.0\n\npragma solidity ^0.8.13;\n\ncontract BalanceSheet{\n    address public owner;\n    uint public balance;\n\n    constructor(){\n        owner=msg.sender;\n    }\n\n    /// @notice : A condition to chk the owner is executing the contract\n    modifier chk_Owner(){\n        require(owner==msg.sender);\n        _;\n    }\n\n    function getBalance() public chk_Owner returns(uint) {\n        balance = owner.balance;\n        return balance;\n    }\n}\n",
  "sourcePath": "/Users/sujay/Desktop/Sujai @    Developer/Web Development/Blockchain Development/Solidity-DApps/start-defi/src/contracts/Ques1.sol",
  "compiler": {
    "name": "solc",
    "version": "0.8.16+commit.07a7930e.Emscripten.clang"
  },
  "schemaVersion": "3.4.8",
  "updatedAt": "2022-08-23T11:26:00.423Z",
  "networkType": "ethereum",
  "devdoc": {
    "kind": "dev",
    "methods": {},
    "version": 1
  },
  "userdoc": {
    "kind": "user",
    "methods": {},
    "version": 1
  }
}