{
  "contractName": "EtherWallet",
  "abi": [
    {
      "inputs": [],
      "stateMutability": "nonpayable",
      "type": "constructor"
    },
    {
      "anonymous": false,
      "inputs": [
        {
          "indexed": false,
          "internalType": "address",
          "name": "_from",
          "type": "address"
        },
        {
          "indexed": false,
          "internalType": "address",
          "name": "_to",
          "type": "address"
        },
        {
          "indexed": false,
          "internalType": "uint256",
          "name": "ammount",
          "type": "uint256"
        }
      ],
      "name": "OwnerPrivlege",
      "type": "event"
    },
    {
      "inputs": [
        {
          "internalType": "address",
          "name": "",
          "type": "address"
        }
      ],
      "name": "BalanceSheet",
      "outputs": [
        {
          "internalType": "uint256",
          "name": "",
          "type": "uint256"
        }
      ],
      "stateMutability": "view",
      "type": "function",
      "constant": true
    },
    {
      "inputs": [
        {
          "internalType": "address",
          "name": "",
          "type": "address"
        },
        {
          "internalType": "address",
          "name": "",
          "type": "address"
        }
      ],
      "name": "TransactionLedger",
      "outputs": [
        {
          "internalType": "uint256",
          "name": "",
          "type": "uint256"
        }
      ],
      "stateMutability": "view",
      "type": "function",
      "constant": true
    },
    {
      "inputs": [],
      "name": "owner",
      "outputs": [
        {
          "internalType": "address",
          "name": "",
          "type": "address"
        }
      ],
      "stateMutability": "view",
      "type": "function",
      "constant": true
    },
    {
      "inputs": [
        {
          "internalType": "address",
          "name": "_payee",
          "type": "address"
        },
        {
          "internalType": "address",
          "name": "_seller",
          "type": "address"
        },
        {
          "internalType": "uint256",
          "name": "ammount",
          "type": "uint256"
        }
      ],
      "name": "withdraw",
      "outputs": [
        {
          "internalType": "bool",
          "name": "",
          "type": "bool"
        }
      ],
      "stateMutability": "nonpayable",
      "type": "function"
    },
    {
      "inputs": [
        {
          "internalType": "address",
          "name": "_from",
          "type": "address"
        },
        {
          "internalType": "address",
          "name": "_to",
          "type": "address"
        },
        {
          "internalType": "uint256",
          "name": "ammount",
          "type": "uint256"
        }
      ],
      "name": "sendTransaction",
      "outputs": [
        {
          "internalType": "bool",
          "name": "",
          "type": "bool"
        }
      ],
      "stateMutability": "nonpayable",
      "type": "function"
    }
  ],
  "bytecode": "0x608060405234801561001057600080fd5b50336000806101000a81548173ffffffffffffffffffffffffffffffffffffffff021916908373ffffffffffffffffffffffffffffffffffffffff160217905550610898806100606000396000f3fe608060405234801561001057600080fd5b50600436106100575760003560e01c8063733636c01461005c5780638da5cb5b1461008c578063a92044bb146100aa578063d24a8ca0146100da578063d9caed121461010a575b600080fd5b6100766004803603810190610071919061064a565b61013a565b60405161008391906106b8565b60405180910390f35b6100946102fb565b6040516100a191906106e2565b60405180910390f35b6100c460048036038101906100bf91906106fd565b61031f565b6040516100d19190610739565b60405180910390f35b6100f460048036038101906100ef9190610754565b610337565b6040516101019190610739565b60405180910390f35b610124600480360381019061011f919061064a565b61035c565b60405161013191906106b8565b60405180910390f35b600081600160008673ffffffffffffffffffffffffffffffffffffffff1673ffffffffffffffffffffffffffffffffffffffff16815260200190815260200160002054101561018857600080fd5b81600160008673ffffffffffffffffffffffffffffffffffffffff1673ffffffffffffffffffffffffffffffffffffffff16815260200190815260200160002060008282546101d791906107c3565b9250508190555081600160008573ffffffffffffffffffffffffffffffffffffffff1673ffffffffffffffffffffffffffffffffffffffff168152602001908152602001600020600082825461022d91906107f7565b9250508190555081600260008673ffffffffffffffffffffffffffffffffffffffff1673ffffffffffffffffffffffffffffffffffffffff16815260200190815260200160002060008573ffffffffffffffffffffffffffffffffffffffff1673ffffffffffffffffffffffffffffffffffffffff168152602001908152602001600020819055507ff349bcdafa2e4c9db394f885df7d1ef5c1d8aa1d92723a33d3965f2013ee05cc8484846040516102e89392919061082b565b60405180910390a1600190509392505050565b60008054906101000a900473ffffffffffffffffffffffffffffffffffffffff1681565b60016020528060005260406000206000915090505481565b6002602052816000526040600020602052806000526040600020600091509150505481565b60003373ffffffffffffffffffffffffffffffffffffffff1660008054906101000a900473ffffffffffffffffffffffffffffffffffffffff1673ffffffffffffffffffffffffffffffffffffffff16146103b657600080fd5b81600260008673ffffffffffffffffffffffffffffffffffffffff1673ffffffffffffffffffffffffffffffffffffffff16815260200190815260200160002060008573ffffffffffffffffffffffffffffffffffffffff1673ffffffffffffffffffffffffffffffffffffffff168152602001908152602001600020541461043e57600080fd5b81600160008573ffffffffffffffffffffffffffffffffffffffff1673ffffffffffffffffffffffffffffffffffffffff168152602001908152602001600020600082825461048d91906107c3565b9250508190555081600160008673ffffffffffffffffffffffffffffffffffffffff1673ffffffffffffffffffffffffffffffffffffffff16815260200190815260200160002060008282546104e391906107f7565b925050819055507ff349bcdafa2e4c9db394f885df7d1ef5c1d8aa1d92723a33d3965f2013ee05cc83858460405161051d9392919061082b565b60405180910390a181600260008673ffffffffffffffffffffffffffffffffffffffff1673ffffffffffffffffffffffffffffffffffffffff16815260200190815260200160002060008573ffffffffffffffffffffffffffffffffffffffff1673ffffffffffffffffffffffffffffffffffffffff16815260200190815260200160002081905550600190509392505050565b600080fd5b600073ffffffffffffffffffffffffffffffffffffffff82169050919050565b60006105e1826105b6565b9050919050565b6105f1816105d6565b81146105fc57600080fd5b50565b60008135905061060e816105e8565b92915050565b6000819050919050565b61062781610614565b811461063257600080fd5b50565b6000813590506106448161061e565b92915050565b600080600060608486031215610663576106626105b1565b5b6000610671868287016105ff565b9350506020610682868287016105ff565b925050604061069386828701610635565b9150509250925092565b60008115159050919050565b6106b28161069d565b82525050565b60006020820190506106cd60008301846106a9565b92915050565b6106dc816105d6565b82525050565b60006020820190506106f760008301846106d3565b92915050565b600060208284031215610713576107126105b1565b5b6000610721848285016105ff565b91505092915050565b61073381610614565b82525050565b600060208201905061074e600083018461072a565b92915050565b6000806040838503121561076b5761076a6105b1565b5b6000610779858286016105ff565b925050602061078a858286016105ff565b9150509250929050565b7f4e487b7100000000000000000000000000000000000000000000000000000000600052601160045260246000fd5b60006107ce82610614565b91506107d983610614565b92508282039050818111156107f1576107f0610794565b5b92915050565b600061080282610614565b915061080d83610614565b925082820190508082111561082557610824610794565b5b92915050565b600060608201905061084060008301866106d3565b61084d60208301856106d3565b61085a604083018461072a565b94935050505056fea2646970667358221220d0d159f75c3ac564252e7af06c5fb1d28ca59b98c8292ab0323663dab400252f64736f6c63430008100033",
  "immutableReferences": {},
  "source": "// SPDX-License-Identifier: GPL-3.0\n\npragma solidity ^0.8.13;\n\ncontract EtherWallet{\n    address public owner;\n\n    // events\n    event OwnerPrivlege(address _from, address _to, uint ammount);\n\n    // Ether balance\n    mapping(address => uint256 ) public BalanceSheet;\n    mapping(address =>mapping(address=>uint256))public TransactionLedger;\n\n    constructor(){\n        owner = msg.sender;\n    }\n\n    modifier chkOwner(){\n        require(owner == msg.sender);\n        _;\n    }\n\n    /// @notice : Withdrawing transaction --> only by owner\n    function withdraw(address _payee, address _seller, uint ammount) public chkOwner returns(bool){\n        // Check the transaction --> VAlidate it\n        require(TransactionLedger[_payee][_seller]==ammount);\n        // Take the ammount from seller to payee\n        BalanceSheet[_seller] -=ammount;\n        BalanceSheet[_payee] +=ammount;\n        emit OwnerPrivlege(_seller,_payee,ammount);\n        TransactionLedger[_payee][_seller]=ammount;\n        return true;\n    }\n\n    function sendTransaction(address _from, address _to,uint ammount) public returns(bool){\n        require(BalanceSheet[_from]>=ammount);\n        BalanceSheet[_from] -=ammount;\n        BalanceSheet[_to]+=ammount;\n        TransactionLedger[_from][_to]=ammount;\n        emit OwnerPrivlege(_from, _to, ammount);\n        return true;\n    }\n}\n\n",
  "sourcePath": "/Users/sujay/Desktop/Sujai @    Developer/Web Development/Blockchain Development/Solidity-DApps/start-defi/src/contracts/Ques2.sol",
  "compiler": {
    "name": "solc",
    "version": "0.8.16+commit.07a7930e.Emscripten.clang"
  },
  "schemaVersion": "3.4.8",
  "updatedAt": "2022-08-23T11:26:00.433Z",
  "networkType": "ethereum",
  "devdoc": {
    "kind": "dev",
    "methods": {},
    "version": 1
  },
  "userdoc": {
    "kind": "user",
    "methods": {
      "withdraw(address,address,uint256)": {
        "notice": ": Withdrawing transaction --> only by owner"
      }
    },
    "version": 1
  }
}