{
  "contractName": "SubCurrency",
  "abi": [
    {
      "inputs": [],
      "stateMutability": "nonpayable",
      "type": "constructor"
    },
    {
      "anonymous": false,
      "inputs": [
        {
          "indexed": false,
          "internalType": "address",
          "name": "_from",
          "type": "address"
        },
        {
          "indexed": false,
          "internalType": "address",
          "name": "_to",
          "type": "address"
        },
        {
          "indexed": false,
          "internalType": "uint256",
          "name": "amount",
          "type": "uint256"
        }
      ],
      "name": "Transaction",
      "type": "event"
    },
    {
      "inputs": [],
      "name": "owner",
      "outputs": [
        {
          "internalType": "address",
          "name": "",
          "type": "address"
        }
      ],
      "stateMutability": "view",
      "type": "function",
      "constant": true
    },
    {
      "inputs": [
        {
          "internalType": "address",
          "name": "_receiver",
          "type": "address"
        },
        {
          "internalType": "uint256",
          "name": "amount",
          "type": "uint256"
        }
      ],
      "name": "mint",
      "outputs": [],
      "stateMutability": "nonpayable",
      "type": "function"
    },
    {
      "inputs": [
        {
          "internalType": "address",
          "name": "from",
          "type": "address"
        },
        {
          "internalType": "address",
          "name": "to",
          "type": "address"
        },
        {
          "internalType": "uint256",
          "name": "amount",
          "type": "uint256"
        }
      ],
      "name": "send",
      "outputs": [],
      "stateMutability": "nonpayable",
      "type": "function"
    }
  ],
  "bytecode": "0x6080604052683635c9adc5dea0000060015534801561001d57600080fd5b50336000806101000a81548173ffffffffffffffffffffffffffffffffffffffff021916908373ffffffffffffffffffffffffffffffffffffffff160217905550600154600260008060009054906101000a900473ffffffffffffffffffffffffffffffffffffffff1673ffffffffffffffffffffffffffffffffffffffff1673ffffffffffffffffffffffffffffffffffffffff168152602001908152602001600020819055506105e0806100d46000396000f3fe608060405234801561001057600080fd5b50600436106100415760003560e01c80630779afe61461004657806340c10f19146100625780638da5cb5b1461007e575b600080fd5b610060600480360381019061005b9190610410565b61009c565b005b61007c60048036038101906100779190610463565b6101d4565b005b610086610353565b60405161009391906104b2565b60405180910390f35b80600260008573ffffffffffffffffffffffffffffffffffffffff1673ffffffffffffffffffffffffffffffffffffffff1681526020019081526020016000205410156100e857600080fd5b80600260008573ffffffffffffffffffffffffffffffffffffffff1673ffffffffffffffffffffffffffffffffffffffff168152602001908152602001600020600082825461013791906104fc565b9250508190555080600260008473ffffffffffffffffffffffffffffffffffffffff1673ffffffffffffffffffffffffffffffffffffffff168152602001908152602001600020600082825461018d9190610530565b925050819055507f7db7852b30fc413c4a90995f03d9f21e64c45d0ddc8324a8ce4c730a051cbf828383836040516101c793929190610573565b60405180910390a1505050565b600154600260008060009054906101000a900473ffffffffffffffffffffffffffffffffffffffff1673ffffffffffffffffffffffffffffffffffffffff1673ffffffffffffffffffffffffffffffffffffffff16815260200190815260200160002054101561024357600080fd5b600154600260008473ffffffffffffffffffffffffffffffffffffffff1673ffffffffffffffffffffffffffffffffffffffff16815260200190815260200160002060008282546102949190610530565b92505081905550600154600260008060009054906101000a900473ffffffffffffffffffffffffffffffffffffffff1673ffffffffffffffffffffffffffffffffffffffff1673ffffffffffffffffffffffffffffffffffffffff168152602001908152602001600020600082825461030d91906104fc565b925050819055507f7db7852b30fc413c4a90995f03d9f21e64c45d0ddc8324a8ce4c730a051cbf8233838360405161034793929190610573565b60405180910390a15050565b60008054906101000a900473ffffffffffffffffffffffffffffffffffffffff1681565b600080fd5b600073ffffffffffffffffffffffffffffffffffffffff82169050919050565b60006103a78261037c565b9050919050565b6103b78161039c565b81146103c257600080fd5b50565b6000813590506103d4816103ae565b92915050565b6000819050919050565b6103ed816103da565b81146103f857600080fd5b50565b60008135905061040a816103e4565b92915050565b60008060006060848603121561042957610428610377565b5b6000610437868287016103c5565b9350506020610448868287016103c5565b9250506040610459868287016103fb565b9150509250925092565b6000806040838503121561047a57610479610377565b5b6000610488858286016103c5565b9250506020610499858286016103fb565b9150509250929050565b6104ac8161039c565b82525050565b60006020820190506104c760008301846104a3565b92915050565b7f4e487b7100000000000000000000000000000000000000000000000000000000600052601160045260246000fd5b6000610507826103da565b9150610512836103da565b925082820390508181111561052a576105296104cd565b5b92915050565b600061053b826103da565b9150610546836103da565b925082820190508082111561055e5761055d6104cd565b5b92915050565b61056d816103da565b82525050565b600060608201905061058860008301866104a3565b61059560208301856104a3565b6105a26040830184610564565b94935050505056fea26469706673582212205486768de5980c89061e6e11eb95a922f80aac1b7a916c146319e567a2a7d43264736f6c63430008100033",
  "immutableReferences": {},
  "source": "// SPDX-License-Identifier: GPL-3.0\n\npragma solidity ^0.8.13;\n\ncontract SubCurrency{\n    address public owner;\n    uint256 ammount = 1000000000000000000000;   // 1000 ETher minting\n\n    mapping(address=>uint256) BalanceSheet;\n    event Transaction(address _from, address _to, uint256 amount);\n\n    constructor(){\n        owner= msg.sender;\n        BalanceSheet[owner]=ammount;\n\n    }\n\n    function mint(address _receiver, uint amount) public {\n        require(BalanceSheet[owner]>=ammount);\n        BalanceSheet[_receiver] +=ammount;\n        BalanceSheet[owner] -=ammount;\n        emit Transaction(msg.sender,_receiver,amount);\n    }\n\n    function send(address from, address to, uint amount)public{\n        require(BalanceSheet[from]>=amount);\n        BalanceSheet[from]-=amount;\n        BalanceSheet[to]+=amount;\n        emit Transaction(from, to, amount);\n    }\n}",
  "sourcePath": "/Users/sujay/Desktop/Sujai @    Developer/Web Development/Blockchain Development/Solidity-DApps/start-defi/src/contracts/Ques3.sol",
  "compiler": {
    "name": "solc",
    "version": "0.8.16+commit.07a7930e.Emscripten.clang"
  },
  "schemaVersion": "3.4.8",
  "updatedAt": "2022-08-23T11:26:00.428Z",
  "networkType": "ethereum",
  "devdoc": {
    "kind": "dev",
    "methods": {},
    "version": 1
  },
  "userdoc": {
    "kind": "user",
    "methods": {},
    "version": 1
  }
}