{
  "contractName": "FunctionOverload",
  "abi": [
    {
      "inputs": [],
      "stateMutability": "nonpayable",
      "type": "constructor"
    },
    {
      "inputs": [],
      "name": "num",
      "outputs": [
        {
          "internalType": "uint256",
          "name": "",
          "type": "uint256"
        }
      ],
      "stateMutability": "view",
      "type": "function",
      "constant": true
    },
    {
      "inputs": [],
      "name": "owner",
      "outputs": [
        {
          "internalType": "address",
          "name": "",
          "type": "address"
        }
      ],
      "stateMutability": "view",
      "type": "function",
      "constant": true
    },
    {
      "inputs": [
        {
          "internalType": "uint256",
          "name": "a",
          "type": "uint256"
        },
        {
          "internalType": "uint256",
          "name": "b",
          "type": "uint256"
        }
      ],
      "name": "one",
      "outputs": [
        {
          "internalType": "uint256",
          "name": "",
          "type": "uint256"
        }
      ],
      "stateMutability": "nonpayable",
      "type": "function"
    },
    {
      "inputs": [
        {
          "internalType": "uint256",
          "name": "a",
          "type": "uint256"
        }
      ],
      "name": "one",
      "outputs": [
        {
          "internalType": "uint256",
          "name": "",
          "type": "uint256"
        }
      ],
      "stateMutability": "nonpayable",
      "type": "function"
    }
  ],
  "bytecode": "0x608060405234801561001057600080fd5b50336000806101000a81548173ffffffffffffffffffffffffffffffffffffffff021916908373ffffffffffffffffffffffffffffffffffffffff160217905550610321806100606000396000f3fe608060405234801561001057600080fd5b506004361061004c5760003560e01c8063320fdc75146100515780634e70b1dc146100815780638da5cb5b1461009f578063ef56f928146100bd575b600080fd5b61006b60048036038101906100669190610187565b6100ed565b60405161007891906101d6565b60405180910390f35b61008961010c565b60405161009691906101d6565b60405180910390f35b6100a7610112565b6040516100b49190610232565b60405180910390f35b6100d760048036038101906100d2919061024d565b610136565b6040516100e491906101d6565b60405180910390f35b600081836100fb91906102a9565b600181905550600154905092915050565b60015481565b60008054906101000a900473ffffffffffffffffffffffffffffffffffffffff1681565b6000600282186001819055506001549050919050565b600080fd5b6000819050919050565b61016481610151565b811461016f57600080fd5b50565b6000813590506101818161015b565b92915050565b6000806040838503121561019e5761019d61014c565b5b60006101ac85828601610172565b92505060206101bd85828601610172565b9150509250929050565b6101d081610151565b82525050565b60006020820190506101eb60008301846101c7565b92915050565b600073ffffffffffffffffffffffffffffffffffffffff82169050919050565b600061021c826101f1565b9050919050565b61022c81610211565b82525050565b60006020820190506102476000830184610223565b92915050565b6000602082840312156102635761026261014c565b5b600061027184828501610172565b91505092915050565b7f4e487b7100000000000000000000000000000000000000000000000000000000600052601160045260246000fd5b60006102b482610151565b91506102bf83610151565b92508282026102cd81610151565b915082820484148315176102e4576102e361027a565b5b509291505056fea2646970667358221220df779fb570c01606b9e2add4806fc5ce113869e82c158da112501951c36e6b6864736f6c63430008110033",
  "immutableReferences": {},
  "source": "// SPDX-License-Identifier: GPL-3.0\n\npragma solidity ^0.8.13;\n\ncontract FunctionOverload{\n    address public owner;\n    uint256 public num;\n    constructor(){\n        owner=msg.sender;\n    }\n\n    /// @notice : Function is with the same name\n    /// @dev : The Function Overloading refers to the functions which plays the different roles in a smart contract\n    function one(uint256 a,uint256 b) public returns(uint256){\n        num=a*b;\n        return num;\n    }\n\n    function one(uint256 a)public returns(uint256){\n        num=a^2;\n        return num;\n    }\n}",
  "sourcePath": "/Users/sujay/Desktop/Sujai @    Developer/Web Development/Blockchain Development/Digital_Assignments/Lab-Assignment-3/src/contracts/Question-1.sol",
  "compiler": {
    "name": "solc",
    "version": "0.8.17+commit.8df45f5f.Emscripten.clang"
  },
  "schemaVersion": "3.4.9",
  "updatedAt": "2022-09-13T15:44:11.592Z",
  "networkType": "ethereum",
  "devdoc": {
    "kind": "dev",
    "methods": {
      "one(uint256,uint256)": {
        "details": ": The Function Overloading refers to the functions which plays the different roles in a smart contract"
      }
    },
    "version": 1
  },
  "userdoc": {
    "kind": "user",
    "methods": {
      "one(uint256,uint256)": {
        "notice": ": Function is with the same name"
      }
    },
    "version": 1
  }
}